{
  "_format": "hh-sol-artifact-1",
  "contractName": "NFT_WEB3_EXPOLRER",
  "sourceName": "contracts/NFT_WEB3_EXPOLRER.sol",
  "abi": [
    {
      "inputs": [],
      "stateMutability": "nonpayable",
      "type": "constructor"
    },
    {
      "anonymous": false,
      "inputs": [
        {
          "indexed": true,
          "internalType": "address",
          "name": "owner",
          "type": "address"
        },
        {
          "indexed": true,
          "internalType": "address",
          "name": "approved",
          "type": "address"
        },
        {
          "indexed": true,
          "internalType": "uint256",
          "name": "tokenId",
          "type": "uint256"
        }
      ],
      "name": "Approval",
      "type": "event"
    },
    {
      "anonymous": false,
      "inputs": [
        {
          "indexed": true,
          "internalType": "address",
          "name": "owner",
          "type": "address"
        },
        {
          "indexed": true,
          "internalType": "address",
          "name": "operator",
          "type": "address"
        },
        {
          "indexed": false,
          "internalType": "bool",
          "name": "approved",
          "type": "bool"
        }
      ],
      "name": "ApprovalForAll",
      "type": "event"
    },
    {
      "inputs": [
        {
          "internalType": "address",
          "name": "to",
          "type": "address"
        },
        {
          "internalType": "uint256",
          "name": "tokenId",
          "type": "uint256"
        }
      ],
      "name": "approve",
      "outputs": [],
      "stateMutability": "nonpayable",
      "type": "function"
    },
    {
      "inputs": [
        {
          "internalType": "uint256",
          "name": "numberOfTokens",
          "type": "uint256"
        }
      ],
      "name": "mint",
      "outputs": [],
      "stateMutability": "payable",
      "type": "function"
    },
    {
      "anonymous": false,
      "inputs": [
        {
          "indexed": true,
          "internalType": "address",
          "name": "previousOwner",
          "type": "address"
        },
        {
          "indexed": true,
          "internalType": "address",
          "name": "newOwner",
          "type": "address"
        }
      ],
      "name": "OwnershipTransferred",
      "type": "event"
    },
    {
      "inputs": [],
      "name": "renounceOwnership",
      "outputs": [],
      "stateMutability": "nonpayable",
      "type": "function"
    },
    {
      "inputs": [
        {
          "internalType": "address",
          "name": "from",
          "type": "address"
        },
        {
          "internalType": "address",
          "name": "to",
          "type": "address"
        },
        {
          "internalType": "uint256",
          "name": "tokenId",
          "type": "uint256"
        }
      ],
      "name": "safeTransferFrom",
      "outputs": [],
      "stateMutability": "nonpayable",
      "type": "function"
    },
    {
      "inputs": [
        {
          "internalType": "address",
          "name": "from",
          "type": "address"
        },
        {
          "internalType": "address",
          "name": "to",
          "type": "address"
        },
        {
          "internalType": "uint256",
          "name": "tokenId",
          "type": "uint256"
        },
        {
          "internalType": "bytes",
          "name": "data",
          "type": "bytes"
        }
      ],
      "name": "safeTransferFrom",
      "outputs": [],
      "stateMutability": "nonpayable",
      "type": "function"
    },
    {
      "inputs": [
        {
          "internalType": "address",
          "name": "operator",
          "type": "address"
        },
        {
          "internalType": "bool",
          "name": "approved",
          "type": "bool"
        }
      ],
      "name": "setApprovalForAll",
      "outputs": [],
      "stateMutability": "nonpayable",
      "type": "function"
    },
    {
      "inputs": [
        {
          "internalType": "string",
          "name": "baseURI_",
          "type": "string"
        }
      ],
      "name": "setBaseURI",
      "outputs": [],
      "stateMutability": "nonpayable",
      "type": "function"
    },
    {
      "anonymous": false,
      "inputs": [
        {
          "indexed": true,
          "internalType": "address",
          "name": "from",
          "type": "address"
        },
        {
          "indexed": true,
          "internalType": "address",
          "name": "to",
          "type": "address"
        },
        {
          "indexed": true,
          "internalType": "uint256",
          "name": "tokenId",
          "type": "uint256"
        }
      ],
      "name": "Transfer",
      "type": "event"
    },
    {
      "inputs": [
        {
          "internalType": "address",
          "name": "from",
          "type": "address"
        },
        {
          "internalType": "address",
          "name": "to",
          "type": "address"
        },
        {
          "internalType": "uint256",
          "name": "tokenId",
          "type": "uint256"
        }
      ],
      "name": "transferFrom",
      "outputs": [],
      "stateMutability": "nonpayable",
      "type": "function"
    },
    {
      "inputs": [
        {
          "internalType": "address",
          "name": "newOwner",
          "type": "address"
        }
      ],
      "name": "transferOwnership",
      "outputs": [],
      "stateMutability": "nonpayable",
      "type": "function"
    },
    {
      "inputs": [],
      "name": "withdraw",
      "outputs": [],
      "stateMutability": "nonpayable",
      "type": "function"
    },
    {
      "inputs": [
        {
          "internalType": "address",
          "name": "owner",
          "type": "address"
        }
      ],
      "name": "balanceOf",
      "outputs": [
        {
          "internalType": "uint256",
          "name": "",
          "type": "uint256"
        }
      ],
      "stateMutability": "view",
      "type": "function"
    },
    {
      "inputs": [
        {
          "internalType": "uint256",
          "name": "tokenId",
          "type": "uint256"
        }
      ],
      "name": "getApproved",
      "outputs": [
        {
          "internalType": "address",
          "name": "",
          "type": "address"
        }
      ],
      "stateMutability": "view",
      "type": "function"
    },
    {
      "inputs": [
        {
          "internalType": "address",
          "name": "owner",
          "type": "address"
        },
        {
          "internalType": "address",
          "name": "operator",
          "type": "address"
        }
      ],
      "name": "isApprovedForAll",
      "outputs": [
        {
          "internalType": "bool",
          "name": "",
          "type": "bool"
        }
      ],
      "stateMutability": "view",
      "type": "function"
    },
    {
      "inputs": [],
      "name": "MAX_SUPPLY",
      "outputs": [
        {
          "internalType": "uint256",
          "name": "",
          "type": "uint256"
        }
      ],
      "stateMutability": "view",
      "type": "function"
    },
    {
      "inputs": [],
      "name": "name",
      "outputs": [
        {
          "internalType": "string",
          "name": "",
          "type": "string"
        }
      ],
      "stateMutability": "view",
      "type": "function"
    },
    {
      "inputs": [],
      "name": "owner",
      "outputs": [
        {
          "internalType": "address",
          "name": "",
          "type": "address"
        }
      ],
      "stateMutability": "view",
      "type": "function"
    },
    {
      "inputs": [
        {
          "internalType": "uint256",
          "name": "tokenId",
          "type": "uint256"
        }
      ],
      "name": "ownerOf",
      "outputs": [
        {
          "internalType": "address",
          "name": "",
          "type": "address"
        }
      ],
      "stateMutability": "view",
      "type": "function"
    },
    {
      "inputs": [],
      "name": "PRICE_PER_TOKEN",
      "outputs": [
        {
          "internalType": "uint256",
          "name": "",
          "type": "uint256"
        }
      ],
      "stateMutability": "view",
      "type": "function"
    },
    {
      "inputs": [
        {
          "internalType": "bytes4",
          "name": "interfaceId",
          "type": "bytes4"
        }
      ],
      "name": "supportsInterface",
      "outputs": [
        {
          "internalType": "bool",
          "name": "",
          "type": "bool"
        }
      ],
      "stateMutability": "view",
      "type": "function"
    },
    {
      "inputs": [],
      "name": "symbol",
      "outputs": [
        {
          "internalType": "string",
          "name": "",
          "type": "string"
        }
      ],
      "stateMutability": "view",
      "type": "function"
    },
    {
      "inputs": [
        {
          "internalType": "uint256",
          "name": "index",
          "type": "uint256"
        }
      ],
      "name": "tokenByIndex",
      "outputs": [
        {
          "internalType": "uint256",
          "name": "",
          "type": "uint256"
        }
      ],
      "stateMutability": "view",
      "type": "function"
    },
    {
      "inputs": [
        {
          "internalType": "address",
          "name": "owner",
          "type": "address"
        },
        {
          "internalType": "uint256",
          "name": "index",
          "type": "uint256"
        }
      ],
      "name": "tokenOfOwnerByIndex",
      "outputs": [
        {
          "internalType": "uint256",
          "name": "",
          "type": "uint256"
        }
      ],
      "stateMutability": "view",
      "type": "function"
    },
    {
      "inputs": [
        {
          "internalType": "uint256",
          "name": "tokenId_",
          "type": "uint256"
        }
      ],
      "name": "tokenURI",
      "outputs": [
        {
          "internalType": "string",
          "name": "",
          "type": "string"
        }
      ],
      "stateMutability": "view",
      "type": "function"
    },
    {
      "inputs": [],
      "name": "totalSupply",
      "outputs": [
        {
          "internalType": "uint256",
          "name": "",
          "type": "uint256"
        }
      ],
      "stateMutability": "view",
      "type": "function"
    },
    {
      "inputs": [],
      "name": "uriSuffix",
      "outputs": [
        {
          "internalType": "string",
          "name": "",
          "type": "string"
        }
      ],
      "stateMutability": "view",
      "type": "function"
    }
  ],
  "bytecode": "0x60806040526040518060400160405280600581526020017f2e6a736f6e000000000000000000000000000000000000000000000000000000815250600c908051906020019062000051929190620001f4565b503480156200005f57600080fd5b506040518060400160405280601181526020017f6e66745f776562335f6578706f6c7265720000000000000000000000000000008152506040518060400160405280601181526020017f4e46545f574542335f4558504f4c5245520000000000000000000000000000008152508160009080519060200190620000e4929190620001f4565b508060019080519060200190620000fd929190620001f4565b50505062000120620001146200012660201b60201c565b6200012e60201b60201c565b62000309565b600033905090565b6000600a60009054906101000a900473ffffffffffffffffffffffffffffffffffffffff16905081600a60006101000a81548173ffffffffffffffffffffffffffffffffffffffff021916908373ffffffffffffffffffffffffffffffffffffffff1602179055508173ffffffffffffffffffffffffffffffffffffffff168173ffffffffffffffffffffffffffffffffffffffff167f8be0079c531659141344cd1fd0a4f28419497f9722a3daafe3b4186f6b6457e060405160405180910390a35050565b8280546200020290620002d3565b90600052602060002090601f01602090048101928262000226576000855562000272565b82601f106200024157805160ff191683800117855562000272565b8280016001018555821562000272579182015b828111156200027157825182559160200191906001019062000254565b5b50905062000281919062000285565b5090565b5b80821115620002a057600081600090555060010162000286565b5090565b7f4e487b7100000000000000000000000000000000000000000000000000000000600052602260045260246000fd5b60006002820490506001821680620002ec57607f821691505b60208210811415620003035762000302620002a4565b5b50919050565b61383280620003196000396000f3fe6080604052600436106101665760003560e01c806355f804b3116100d157806395d89b411161008a578063b88d4fde11610064578063b88d4fde1461051d578063c87b56dd14610546578063e985e9c514610583578063f2fde38b146105c057610166565b806395d89b41146104ad578063a0712d68146104d8578063a22cb465146104f457610166565b806355f804b31461039d5780636352211e146103c657806370a0823114610403578063715018a614610440578063833b9499146104575780638da5cb5b1461048257610166565b80632f745c59116101235780632f745c591461028d57806332cb6b0c146102ca5780633ccfd60b146102f557806342842e0e1461030c5780634f6ccce7146103355780635503a0e81461037257610166565b806301ffc9a71461016b57806306fdde03146101a8578063081812fc146101d3578063095ea7b31461021057806318160ddd1461023957806323b872dd14610264575b600080fd5b34801561017757600080fd5b50610192600480360381019061018d91906123cd565b6105e9565b60405161019f9190612415565b60405180910390f35b3480156101b457600080fd5b506101bd6105fb565b6040516101ca91906124c9565b60405180910390f35b3480156101df57600080fd5b506101fa60048036038101906101f59190612521565b61068d565b604051610207919061258f565b60405180910390f35b34801561021c57600080fd5b50610237600480360381019061023291906125d6565b6106d3565b005b34801561024557600080fd5b5061024e6107eb565b60405161025b9190612625565b60405180910390f35b34801561027057600080fd5b5061028b60048036038101906102869190612640565b6107f8565b005b34801561029957600080fd5b506102b460048036038101906102af91906125d6565b610858565b6040516102c19190612625565b60405180910390f35b3480156102d657600080fd5b506102df6108fd565b6040516102ec9190612625565b60405180910390f35b34801561030157600080fd5b5061030a610903565b005b34801561031857600080fd5b50610333600480360381019061032e9190612640565b61095a565b005b34801561034157600080fd5b5061035c60048036038101906103579190612521565b61097a565b6040516103699190612625565b60405180910390f35b34801561037e57600080fd5b506103876109eb565b60405161039491906124c9565b60405180910390f35b3480156103a957600080fd5b506103c460048036038101906103bf91906127c8565b610a79565b005b3480156103d257600080fd5b506103ed60048036038101906103e89190612521565b610a9b565b6040516103fa919061258f565b60405180910390f35b34801561040f57600080fd5b5061042a60048036038101906104259190612811565b610b4d565b6040516104379190612625565b60405180910390f35b34801561044c57600080fd5b50610455610c05565b005b34801561046357600080fd5b5061046c610c19565b6040516104799190612625565b60405180910390f35b34801561048e57600080fd5b50610497610c24565b6040516104a4919061258f565b60405180910390f35b3480156104b957600080fd5b506104c2610c4e565b6040516104cf91906124c9565b60405180910390f35b6104f260048036038101906104ed9190612521565b610ce0565b005b34801561050057600080fd5b5061051b6004803603810190610516919061286a565b610dc9565b005b34801561052957600080fd5b50610544600480360381019061053f919061294b565b610ddf565b005b34801561055257600080fd5b5061056d60048036038101906105689190612521565b610e41565b60405161057a91906124c9565b60405180910390f35b34801561058f57600080fd5b506105aa60048036038101906105a591906129ce565b610ebd565b6040516105b79190612415565b60405180910390f35b3480156105cc57600080fd5b506105e760048036038101906105e29190612811565b610f51565b005b60006105f482610fd5565b9050919050565b60606000805461060a90612a3d565b80601f016020809104026020016040519081016040528092919081815260200182805461063690612a3d565b80156106835780601f1061065857610100808354040283529160200191610683565b820191906000526020600020905b81548152906001019060200180831161066657829003601f168201915b5050505050905090565b60006106988261104f565b6004600083815260200190815260200160002060009054906101000a900473ffffffffffffffffffffffffffffffffffffffff169050919050565b60006106de82610a9b565b90508073ffffffffffffffffffffffffffffffffffffffff168373ffffffffffffffffffffffffffffffffffffffff16141561074f576040517f08c379a000000000000000000000000000000000000000000000000000000000815260040161074690612ae1565b60405180910390fd5b8073ffffffffffffffffffffffffffffffffffffffff1661076e61109a565b73ffffffffffffffffffffffffffffffffffffffff16148061079d575061079c8161079761109a565b610ebd565b5b6107dc576040517f08c379a00000000000000000000000000000000000000000000000000000000081526004016107d390612b73565b60405180910390fd5b6107e683836110a2565b505050565b6000600880549050905090565b61080961080361109a565b8261115b565b610848576040517f08c379a000000000000000000000000000000000000000000000000000000000815260040161083f90612c05565b60405180910390fd5b6108538383836111f0565b505050565b600061086383610b4d565b82106108a4576040517f08c379a000000000000000000000000000000000000000000000000000000000815260040161089b90612c97565b60405180910390fd5b600660008473ffffffffffffffffffffffffffffffffffffffff1673ffffffffffffffffffffffffffffffffffffffff168152602001908152602001600020600083815260200190815260200160002054905092915050565b6103e881565b61090b611457565b60004790503373ffffffffffffffffffffffffffffffffffffffff166108fc829081150290604051600060405180830381858888f19350505050158015610956573d6000803e3d6000fd5b5050565b61097583838360405180602001604052806000815250610ddf565b505050565b60006109846107eb565b82106109c5576040517f08c379a00000000000000000000000000000000000000000000000000000000081526004016109bc90612d29565b60405180910390fd5b600882815481106109d9576109d8612d49565b5b90600052602060002001549050919050565b600c80546109f890612a3d565b80601f0160208091040260200160405190810160405280929190818152602001828054610a2490612a3d565b8015610a715780601f10610a4657610100808354040283529160200191610a71565b820191906000526020600020905b815481529060010190602001808311610a5457829003601f168201915b505050505081565b610a81611457565b80600b9080519060200190610a979291906122be565b5050565b6000806002600084815260200190815260200160002060009054906101000a900473ffffffffffffffffffffffffffffffffffffffff169050600073ffffffffffffffffffffffffffffffffffffffff168173ffffffffffffffffffffffffffffffffffffffff161415610b44576040517f08c379a0000000000000000000000000000000000000000000000000000000008152600401610b3b90612dc4565b60405180910390fd5b80915050919050565b60008073ffffffffffffffffffffffffffffffffffffffff168273ffffffffffffffffffffffffffffffffffffffff161415610bbe576040517f08c379a0000000000000000000000000000000000000000000000000000000008152600401610bb590612e56565b60405180910390fd5b600360008373ffffffffffffffffffffffffffffffffffffffff1673ffffffffffffffffffffffffffffffffffffffff168152602001908152602001600020549050919050565b610c0d611457565b610c1760006114d5565b565b662386f26fc1000081565b6000600a60009054906101000a900473ffffffffffffffffffffffffffffffffffffffff16905090565b606060018054610c5d90612a3d565b80601f0160208091040260200160405190810160405280929190818152602001828054610c8990612a3d565b8015610cd65780601f10610cab57610100808354040283529160200191610cd6565b820191906000526020600020905b815481529060010190602001808311610cb957829003601f168201915b5050505050905090565b6000610cea6107eb565b90506103e88282610cfb9190612ea5565b1115610d3c576040517f08c379a0000000000000000000000000000000000000000000000000000000008152600401610d3390612f47565b60405180910390fd5b3482662386f26fc10000610d509190612f67565b1115610d91576040517f08c379a0000000000000000000000000000000000000000000000000000000008152600401610d889061300d565b60405180910390fd5b60005b82811015610dc457610db1338284610dac9190612ea5565b61159b565b8080610dbc9061302d565b915050610d94565b505050565b610ddb610dd461109a565b83836115b9565b5050565b610df0610dea61109a565b8361115b565b610e2f576040517f08c379a0000000000000000000000000000000000000000000000000000000008152600401610e2690612c05565b60405180910390fd5b610e3b84848484611726565b50505050565b6060610e4c82611782565b610e8b576040517f08c379a0000000000000000000000000000000000000000000000000000000008152600401610e82906130c2565b60405180910390fd5b600b610e96836117ee565b604051602001610ea79291906131fe565b6040516020818303038152906040529050919050565b6000600560008473ffffffffffffffffffffffffffffffffffffffff1673ffffffffffffffffffffffffffffffffffffffff16815260200190815260200160002060008373ffffffffffffffffffffffffffffffffffffffff1673ffffffffffffffffffffffffffffffffffffffff16815260200190815260200160002060009054906101000a900460ff16905092915050565b610f59611457565b600073ffffffffffffffffffffffffffffffffffffffff168173ffffffffffffffffffffffffffffffffffffffff161415610fc9576040517f08c379a0000000000000000000000000000000000000000000000000000000008152600401610fc09061329f565b60405180910390fd5b610fd2816114d5565b50565b60007f780e9d63000000000000000000000000000000000000000000000000000000007bffffffffffffffffffffffffffffffffffffffffffffffffffffffff1916827bffffffffffffffffffffffffffffffffffffffffffffffffffffffff1916148061104857506110478261194f565b5b9050919050565b61105881611782565b611097576040517f08c379a000000000000000000000000000000000000000000000000000000000815260040161108e90612dc4565b60405180910390fd5b50565b600033905090565b816004600083815260200190815260200160002060006101000a81548173ffffffffffffffffffffffffffffffffffffffff021916908373ffffffffffffffffffffffffffffffffffffffff160217905550808273ffffffffffffffffffffffffffffffffffffffff1661111583610a9b565b73ffffffffffffffffffffffffffffffffffffffff167f8c5be1e5ebec7d5bd14f71427d1e84f3dd0314c0f7b2291e5b200ac8c7c3b92560405160405180910390a45050565b60008061116783610a9b565b90508073ffffffffffffffffffffffffffffffffffffffff168473ffffffffffffffffffffffffffffffffffffffff1614806111a957506111a88185610ebd565b5b806111e757508373ffffffffffffffffffffffffffffffffffffffff166111cf8461068d565b73ffffffffffffffffffffffffffffffffffffffff16145b91505092915050565b8273ffffffffffffffffffffffffffffffffffffffff1661121082610a9b565b73ffffffffffffffffffffffffffffffffffffffff1614611266576040517f08c379a000000000000000000000000000000000000000000000000000000000815260040161125d90613331565b60405180910390fd5b600073ffffffffffffffffffffffffffffffffffffffff168273ffffffffffffffffffffffffffffffffffffffff1614156112d6576040517f08c379a00000000000000000000000000000000000000000000000000000000081526004016112cd906133c3565b60405180910390fd5b6112e1838383611a31565b6112ec6000826110a2565b6001600360008573ffffffffffffffffffffffffffffffffffffffff1673ffffffffffffffffffffffffffffffffffffffff168152602001908152602001600020600082825461133c91906133e3565b925050819055506001600360008473ffffffffffffffffffffffffffffffffffffffff1673ffffffffffffffffffffffffffffffffffffffff16815260200190815260200160002060008282546113939190612ea5565b92505081905550816002600083815260200190815260200160002060006101000a81548173ffffffffffffffffffffffffffffffffffffffff021916908373ffffffffffffffffffffffffffffffffffffffff160217905550808273ffffffffffffffffffffffffffffffffffffffff168473ffffffffffffffffffffffffffffffffffffffff167fddf252ad1be2c89b69c2b068fc378daa952ba7f163c4a11628f55a4df523b3ef60405160405180910390a4611452838383611a41565b505050565b61145f61109a565b73ffffffffffffffffffffffffffffffffffffffff1661147d610c24565b73ffffffffffffffffffffffffffffffffffffffff16146114d3576040517f08c379a00000000000000000000000000000000000000000000000000000000081526004016114ca90613463565b60405180910390fd5b565b6000600a60009054906101000a900473ffffffffffffffffffffffffffffffffffffffff16905081600a60006101000a81548173ffffffffffffffffffffffffffffffffffffffff021916908373ffffffffffffffffffffffffffffffffffffffff1602179055508173ffffffffffffffffffffffffffffffffffffffff168173ffffffffffffffffffffffffffffffffffffffff167f8be0079c531659141344cd1fd0a4f28419497f9722a3daafe3b4186f6b6457e060405160405180910390a35050565b6115b5828260405180602001604052806000815250611a46565b5050565b8173ffffffffffffffffffffffffffffffffffffffff168373ffffffffffffffffffffffffffffffffffffffff161415611628576040517f08c379a000000000000000000000000000000000000000000000000000000000815260040161161f906134cf565b60405180910390fd5b80600560008573ffffffffffffffffffffffffffffffffffffffff1673ffffffffffffffffffffffffffffffffffffffff16815260200190815260200160002060008473ffffffffffffffffffffffffffffffffffffffff1673ffffffffffffffffffffffffffffffffffffffff16815260200190815260200160002060006101000a81548160ff0219169083151502179055508173ffffffffffffffffffffffffffffffffffffffff168373ffffffffffffffffffffffffffffffffffffffff167f17307eab39ab6107e8899845ad3d59bd9653f200f220920489ca2b5937696c31836040516117199190612415565b60405180910390a3505050565b6117318484846111f0565b61173d84848484611aa1565b61177c576040517f08c379a000000000000000000000000000000000000000000000000000000000815260040161177390613561565b60405180910390fd5b50505050565b60008073ffffffffffffffffffffffffffffffffffffffff166002600084815260200190815260200160002060009054906101000a900473ffffffffffffffffffffffffffffffffffffffff1673ffffffffffffffffffffffffffffffffffffffff1614159050919050565b60606000821415611836576040518060400160405280600181526020017f3000000000000000000000000000000000000000000000000000000000000000815250905061194a565b600082905060005b600082146118685780806118519061302d565b915050600a8261186191906135b0565b915061183e565b60008167ffffffffffffffff8111156118845761188361269d565b5b6040519080825280601f01601f1916602001820160405280156118b65781602001600182028036833780820191505090505b5090505b60008514611943576001826118cf91906133e3565b9150600a856118de91906135e1565b60306118ea9190612ea5565b60f81b818381518110611900576118ff612d49565b5b60200101907effffffffffffffffffffffffffffffffffffffffffffffffffffffffffffff1916908160001a905350600a8561193c91906135b0565b94506118ba565b8093505050505b919050565b60007f80ac58cd000000000000000000000000000000000000000000000000000000007bffffffffffffffffffffffffffffffffffffffffffffffffffffffff1916827bffffffffffffffffffffffffffffffffffffffffffffffffffffffff19161480611a1a57507f5b5e139f000000000000000000000000000000000000000000000000000000007bffffffffffffffffffffffffffffffffffffffffffffffffffffffff1916827bffffffffffffffffffffffffffffffffffffffffffffffffffffffff1916145b80611a2a5750611a2982611c38565b5b9050919050565b611a3c838383611ca2565b505050565b505050565b611a508383611db6565b611a5d6000848484611aa1565b611a9c576040517f08c379a0000000000000000000000000000000000000000000000000000000008152600401611a9390613561565b60405180910390fd5b505050565b6000611ac28473ffffffffffffffffffffffffffffffffffffffff16611f90565b15611c2b578373ffffffffffffffffffffffffffffffffffffffff1663150b7a02611aeb61109a565b8786866040518563ffffffff1660e01b8152600401611b0d9493929190613667565b602060405180830381600087803b158015611b2757600080fd5b505af1925050508015611b5857506040513d601f19601f82011682018060405250810190611b5591906136c8565b60015b611bdb573d8060008114611b88576040519150601f19603f3d011682016040523d82523d6000602084013e611b8d565b606091505b50600081511415611bd3576040517f08c379a0000000000000000000000000000000000000000000000000000000008152600401611bca90613561565b60405180910390fd5b805181602001fd5b63150b7a0260e01b7bffffffffffffffffffffffffffffffffffffffffffffffffffffffff1916817bffffffffffffffffffffffffffffffffffffffffffffffffffffffff191614915050611c30565b600190505b949350505050565b60007f01ffc9a7000000000000000000000000000000000000000000000000000000007bffffffffffffffffffffffffffffffffffffffffffffffffffffffff1916827bffffffffffffffffffffffffffffffffffffffffffffffffffffffff1916149050919050565b611cad838383611fb3565b600073ffffffffffffffffffffffffffffffffffffffff168373ffffffffffffffffffffffffffffffffffffffff161415611cf057611ceb81611fb8565b611d2f565b8173ffffffffffffffffffffffffffffffffffffffff168373ffffffffffffffffffffffffffffffffffffffff1614611d2e57611d2d8382612001565b5b5b600073ffffffffffffffffffffffffffffffffffffffff168273ffffffffffffffffffffffffffffffffffffffff161415611d7257611d6d8161216e565b611db1565b8273ffffffffffffffffffffffffffffffffffffffff168273ffffffffffffffffffffffffffffffffffffffff1614611db057611daf828261223f565b5b5b505050565b600073ffffffffffffffffffffffffffffffffffffffff168273ffffffffffffffffffffffffffffffffffffffff161415611e26576040517f08c379a0000000000000000000000000000000000000000000000000000000008152600401611e1d90613741565b60405180910390fd5b611e2f81611782565b15611e6f576040517f08c379a0000000000000000000000000000000000000000000000000000000008152600401611e66906137ad565b60405180910390fd5b611e7b60008383611a31565b6001600360008473ffffffffffffffffffffffffffffffffffffffff1673ffffffffffffffffffffffffffffffffffffffff1681526020019081526020016000206000828254611ecb9190612ea5565b92505081905550816002600083815260200190815260200160002060006101000a81548173ffffffffffffffffffffffffffffffffffffffff021916908373ffffffffffffffffffffffffffffffffffffffff160217905550808273ffffffffffffffffffffffffffffffffffffffff16600073ffffffffffffffffffffffffffffffffffffffff167fddf252ad1be2c89b69c2b068fc378daa952ba7f163c4a11628f55a4df523b3ef60405160405180910390a4611f8c60008383611a41565b5050565b6000808273ffffffffffffffffffffffffffffffffffffffff163b119050919050565b505050565b6008805490506009600083815260200190815260200160002081905550600881908060018154018082558091505060019003906000526020600020016000909190919091505550565b6000600161200e84610b4d565b61201891906133e3565b90506000600760008481526020019081526020016000205490508181146120fd576000600660008673ffffffffffffffffffffffffffffffffffffffff1673ffffffffffffffffffffffffffffffffffffffff168152602001908152602001600020600084815260200190815260200160002054905080600660008773ffffffffffffffffffffffffffffffffffffffff1673ffffffffffffffffffffffffffffffffffffffff168152602001908152602001600020600084815260200190815260200160002081905550816007600083815260200190815260200160002081905550505b6007600084815260200190815260200160002060009055600660008573ffffffffffffffffffffffffffffffffffffffff1673ffffffffffffffffffffffffffffffffffffffff16815260200190815260200160002060008381526020019081526020016000206000905550505050565b6000600160088054905061218291906133e3565b90506000600960008481526020019081526020016000205490506000600883815481106121b2576121b1612d49565b5b9060005260206000200154905080600883815481106121d4576121d3612d49565b5b906000526020600020018190555081600960008381526020019081526020016000208190555060096000858152602001908152602001600020600090556008805480612223576122226137cd565b5b6001900381819060005260206000200160009055905550505050565b600061224a83610b4d565b905081600660008573ffffffffffffffffffffffffffffffffffffffff1673ffffffffffffffffffffffffffffffffffffffff168152602001908152602001600020600083815260200190815260200160002081905550806007600084815260200190815260200160002081905550505050565b8280546122ca90612a3d565b90600052602060002090601f0160209004810192826122ec5760008555612333565b82601f1061230557805160ff1916838001178555612333565b82800160010185558215612333579182015b82811115612332578251825591602001919060010190612317565b5b5090506123409190612344565b5090565b5b8082111561235d576000816000905550600101612345565b5090565b6000604051905090565b600080fd5b600080fd5b60007fffffffff0000000000000000000000000000000000000000000000000000000082169050919050565b6123aa81612375565b81146123b557600080fd5b50565b6000813590506123c7816123a1565b92915050565b6000602082840312156123e3576123e261236b565b5b60006123f1848285016123b8565b91505092915050565b60008115159050919050565b61240f816123fa565b82525050565b600060208201905061242a6000830184612406565b92915050565b600081519050919050565b600082825260208201905092915050565b60005b8381101561246a57808201518184015260208101905061244f565b83811115612479576000848401525b50505050565b6000601f19601f8301169050919050565b600061249b82612430565b6124a5818561243b565b93506124b581856020860161244c565b6124be8161247f565b840191505092915050565b600060208201905081810360008301526124e38184612490565b905092915050565b6000819050919050565b6124fe816124eb565b811461250957600080fd5b50565b60008135905061251b816124f5565b92915050565b6000602082840312156125375761253661236b565b5b60006125458482850161250c565b91505092915050565b600073ffffffffffffffffffffffffffffffffffffffff82169050919050565b60006125798261254e565b9050919050565b6125898161256e565b82525050565b60006020820190506125a46000830184612580565b92915050565b6125b38161256e565b81146125be57600080fd5b50565b6000813590506125d0816125aa565b92915050565b600080604083850312156125ed576125ec61236b565b5b60006125fb858286016125c1565b925050602061260c8582860161250c565b9150509250929050565b61261f816124eb565b82525050565b600060208201905061263a6000830184612616565b92915050565b6000806000606084860312156126595761265861236b565b5b6000612667868287016125c1565b9350506020612678868287016125c1565b92505060406126898682870161250c565b9150509250925092565b600080fd5b600080fd5b7f4e487b7100000000000000000000000000000000000000000000000000000000600052604160045260246000fd5b6126d58261247f565b810181811067ffffffffffffffff821117156126f4576126f361269d565b5b80604052505050565b6000612707612361565b905061271382826126cc565b919050565b600067ffffffffffffffff8211156127335761273261269d565b5b61273c8261247f565b9050602081019050919050565b82818337600083830152505050565b600061276b61276684612718565b6126fd565b90508281526020810184848401111561278757612786612698565b5b612792848285612749565b509392505050565b600082601f8301126127af576127ae612693565b5b81356127bf848260208601612758565b91505092915050565b6000602082840312156127de576127dd61236b565b5b600082013567ffffffffffffffff8111156127fc576127fb612370565b5b6128088482850161279a565b91505092915050565b6000602082840312156128275761282661236b565b5b6000612835848285016125c1565b91505092915050565b612847816123fa565b811461285257600080fd5b50565b6000813590506128648161283e565b92915050565b600080604083850312156128815761288061236b565b5b600061288f858286016125c1565b92505060206128a085828601612855565b9150509250929050565b600067ffffffffffffffff8211156128c5576128c461269d565b5b6128ce8261247f565b9050602081019050919050565b60006128ee6128e9846128aa565b6126fd565b90508281526020810184848401111561290a57612909612698565b5b612915848285612749565b509392505050565b600082601f83011261293257612931612693565b5b81356129428482602086016128db565b91505092915050565b600080600080608085870312156129655761296461236b565b5b6000612973878288016125c1565b9450506020612984878288016125c1565b93505060406129958782880161250c565b925050606085013567ffffffffffffffff8111156129b6576129b5612370565b5b6129c28782880161291d565b91505092959194509250565b600080604083850312156129e5576129e461236b565b5b60006129f3858286016125c1565b9250506020612a04858286016125c1565b9150509250929050565b7f4e487b7100000000000000000000000000000000000000000000000000000000600052602260045260246000fd5b60006002820490506001821680612a5557607f821691505b60208210811415612a6957612a68612a0e565b5b50919050565b7f4552433732313a20617070726f76616c20746f2063757272656e74206f776e6560008201527f7200000000000000000000000000000000000000000000000000000000000000602082015250565b6000612acb60218361243b565b9150612ad682612a6f565b604082019050919050565b60006020820190508181036000830152612afa81612abe565b9050919050565b7f4552433732313a20617070726f76652063616c6c6572206973206e6f7420746f60008201527f6b656e206f776e6572206e6f7220617070726f76656420666f7220616c6c0000602082015250565b6000612b5d603e8361243b565b9150612b6882612b01565b604082019050919050565b60006020820190508181036000830152612b8c81612b50565b9050919050565b7f4552433732313a2063616c6c6572206973206e6f7420746f6b656e206f776e6560008201527f72206e6f7220617070726f766564000000000000000000000000000000000000602082015250565b6000612bef602e8361243b565b9150612bfa82612b93565b604082019050919050565b60006020820190508181036000830152612c1e81612be2565b9050919050565b7f455243373231456e756d657261626c653a206f776e657220696e646578206f7560008201527f74206f6620626f756e6473000000000000000000000000000000000000000000602082015250565b6000612c81602b8361243b565b9150612c8c82612c25565b604082019050919050565b60006020820190508181036000830152612cb081612c74565b9050919050565b7f455243373231456e756d657261626c653a20676c6f62616c20696e646578206f60008201527f7574206f6620626f756e64730000000000000000000000000000000000000000602082015250565b6000612d13602c8361243b565b9150612d1e82612cb7565b604082019050919050565b60006020820190508181036000830152612d4281612d06565b9050919050565b7f4e487b7100000000000000000000000000000000000000000000000000000000600052603260045260246000fd5b7f4552433732313a20696e76616c696420746f6b656e2049440000000000000000600082015250565b6000612dae60188361243b565b9150612db982612d78565b602082019050919050565b60006020820190508181036000830152612ddd81612da1565b9050919050565b7f4552433732313a2061646472657373207a65726f206973206e6f74206120766160008201527f6c6964206f776e65720000000000000000000000000000000000000000000000602082015250565b6000612e4060298361243b565b9150612e4b82612de4565b604082019050919050565b60006020820190508181036000830152612e6f81612e33565b9050919050565b7f4e487b7100000000000000000000000000000000000000000000000000000000600052601160045260246000fd5b6000612eb0826124eb565b9150612ebb836124eb565b9250827fffffffffffffffffffffffffffffffffffffffffffffffffffffffffffffffff03821115612ef057612eef612e76565b5b828201905092915050565b7f507572636861736520776f756c6420657863656564206d617820746f6b656e73600082015250565b6000612f3160208361243b565b9150612f3c82612efb565b602082019050919050565b60006020820190508181036000830152612f6081612f24565b9050919050565b6000612f72826124eb565b9150612f7d836124eb565b9250817fffffffffffffffffffffffffffffffffffffffffffffffffffffffffffffffff0483118215151615612fb657612fb5612e76565b5b828202905092915050565b7f45746865722076616c75652073656e74206973206e6f7420636f727265637400600082015250565b6000612ff7601f8361243b565b915061300282612fc1565b602082019050919050565b6000602082019050818103600083015261302681612fea565b9050919050565b6000613038826124eb565b91507fffffffffffffffffffffffffffffffffffffffffffffffffffffffffffffffff82141561306b5761306a612e76565b5b600182019050919050565b7f546f6b656e20646f7365206e6f74206578697374210000000000000000000000600082015250565b60006130ac60158361243b565b91506130b782613076565b602082019050919050565b600060208201905081810360008301526130db8161309f565b9050919050565b600081905092915050565b60008190508160005260206000209050919050565b6000815461310f81612a3d565b61311981866130e2565b94506001821660008114613134576001811461314557613178565b60ff19831686528186019350613178565b61314e856130ed565b60005b8381101561317057815481890152600182019150602081019050613151565b838801955050505b50505092915050565b600061318c82612430565b61319681856130e2565b93506131a681856020860161244c565b80840191505092915050565b7f2e6a736f6e000000000000000000000000000000000000000000000000000000600082015250565b60006131e86005836130e2565b91506131f3826131b2565b600582019050919050565b600061320a8285613102565b91506132168284613181565b9150613221826131db565b91508190509392505050565b7f4f776e61626c653a206e6577206f776e657220697320746865207a65726f206160008201527f6464726573730000000000000000000000000000000000000000000000000000602082015250565b600061328960268361243b565b91506132948261322d565b604082019050919050565b600060208201905081810360008301526132b88161327c565b9050919050565b7f4552433732313a207472616e736665722066726f6d20696e636f72726563742060008201527f6f776e6572000000000000000000000000000000000000000000000000000000602082015250565b600061331b60258361243b565b9150613326826132bf565b604082019050919050565b6000602082019050818103600083015261334a8161330e565b9050919050565b7f4552433732313a207472616e7366657220746f20746865207a65726f2061646460008201527f7265737300000000000000000000000000000000000000000000000000000000602082015250565b60006133ad60248361243b565b91506133b882613351565b604082019050919050565b600060208201905081810360008301526133dc816133a0565b9050919050565b60006133ee826124eb565b91506133f9836124eb565b92508282101561340c5761340b612e76565b5b828203905092915050565b7f4f776e61626c653a2063616c6c6572206973206e6f7420746865206f776e6572600082015250565b600061344d60208361243b565b915061345882613417565b602082019050919050565b6000602082019050818103600083015261347c81613440565b9050919050565b7f4552433732313a20617070726f766520746f2063616c6c657200000000000000600082015250565b60006134b960198361243b565b91506134c482613483565b602082019050919050565b600060208201905081810360008301526134e8816134ac565b9050919050565b7f4552433732313a207472616e7366657220746f206e6f6e20455243373231526560008201527f63656976657220696d706c656d656e7465720000000000000000000000000000602082015250565b600061354b60328361243b565b9150613556826134ef565b604082019050919050565b6000602082019050818103600083015261357a8161353e565b9050919050565b7f4e487b7100000000000000000000000000000000000000000000000000000000600052601260045260246000fd5b60006135bb826124eb565b91506135c6836124eb565b9250826135d6576135d5613581565b5b828204905092915050565b60006135ec826124eb565b91506135f7836124eb565b92508261360757613606613581565b5b828206905092915050565b600081519050919050565b600082825260208201905092915050565b600061363982613612565b613643818561361d565b935061365381856020860161244c565b61365c8161247f565b840191505092915050565b600060808201905061367c6000830187612580565b6136896020830186612580565b6136966040830185612616565b81810360608301526136a8818461362e565b905095945050505050565b6000815190506136c2816123a1565b92915050565b6000602082840312156136de576136dd61236b565b5b60006136ec848285016136b3565b91505092915050565b7f4552433732313a206d696e7420746f20746865207a65726f2061646472657373600082015250565b600061372b60208361243b565b9150613736826136f5565b602082019050919050565b6000602082019050818103600083015261375a8161371e565b9050919050565b7f4552433732313a20746f6b656e20616c7265616479206d696e74656400000000600082015250565b6000613797601c8361243b565b91506137a282613761565b602082019050919050565b600060208201905081810360008301526137c68161378a565b9050919050565b7f4e487b7100000000000000000000000000000000000000000000000000000000600052603160045260246000fdfea264697066735822122097db07d2901719ea42c5dafdf476781f523b4a7999e91688c50bc0508dc6230864736f6c63430008090033",
  "linkReferences": {},
  "deployedLinkReferences": {}
}